:100000000C9472000C949D000C94C4000C94630634
:100010000C9463060C9463060C949A000C940C05E3
:100020000C949A000C949A000C949A000C949A00E8
:100030000C949A000C949A000C949A000C949A00D8
:100040000C94EB000C949A000C946F030C94A10395
:100050000C949A000C949A000C949A000C949A00B8
:100060000C949A000C949A00000000080002010011
:100070000003040700000000000000000102040863
:100080001020408001020408102001020408102002
:10009000040404040404040402020202020203032E
:1000A00003030303000000002300260029000000D2
:1000B0000000250028002B0000000000240027007D
:1000C0002A0002206272696C6C6F3D002076656CBC
:1000D0006F63696461643D006D6F646F3D00D103BF
:1000E000CD09D40911241FBECFEFD8E0DEBFCDBFAC
:1000F00011E0A0E0B1E0E4E6F8E102C005900D9265
:10010000AE33B107D9F722E0AEE3B1E001C01D92F2
:10011000A835B207E1F710E0C1E7D0E004C02197AD
:10012000FE010E94EF0BCF36D107C9F70E94690587
:100130000C94250C0C94000008951F920F920FB69A
:100140000F9211242F933F934F935F936F937F935D
:100150008F939F93AF93BF93EF93FF93E091000131
:10016000F09101010995FF91EF91BF91AF919F919E
:100170008F917F916F915F914F913F912F910F9050
:100180000FBE0F901F9018951F920F920FB60F92EF
:1001900011242F933F934F935F936F937F938F938C
:1001A0009F93AF93BF93EF93FF93E0910201F09180
:1001B00003010995FF91EF91BF91AF919F918F91AD
:1001C0007F916F915F914F913F912F910F900FBE53
:1001D0000F901F9018951F920F920FB60F92112437
:1001E0002F933F938F939F93AF93BF9380913F0142
:1001F00090914001A0914101B091420130913E01A6
:1002000023E0230F2D3758F50196A11DB11D209332
:100210003E0180933F0190934001A0934101B09330
:1002200042018091430190914401A0914501B09118
:1002300046010196A11DB11D809343019093440195
:10024000A0934501B0934601BF91AF919F918F91CB
:100250003F912F910F900FBE0F901F90189526E899
:10026000230F0296A11DB11DD2CF2FB7F894609134
:100270003F017091400180914101909142012FBF57
:100280000895789484B5826084BD84B5816084BD0E
:1002900085B5826085BD85B5816085BDEEE6F0E0FF
:1002A000808181608083E1E8F0E01082808182605B
:1002B0008083808181608083E0E8F0E080818160DC
:1002C0008083E1EBF0E0808184608083E0EBF0E00C
:1002D000808181608083EAE7F0E0808184608083B0
:1002E000808182608083808181608083808180685A
:1002F00080831092C10008951F93CF93DF93182F2E
:10030000EB0161E00E940202209739F460E0812F46
:10031000DF91CF911F910C943E02CF3FD10511F494
:1003200061E0F5CFE12FF0E0E859FF4FE491E330D1
:1003300031F140F4E130B1F0E230E1F0C038D10504
:100340007CF7E4CFE73029F1E83059F1E430B1F738
:1003500080918000806280938000D0938B00C09356
:100360008A0004C084B5806884BDC7BDDF91CF9189
:100370001F91089584B5806284BDC8BDF7CF809178
:100380008000806880938000D0938900C0938800AB
:10039000EDCF8091B00080688093B000C093B3002F
:1003A000E5CF8091B00080628093B000C093B4002C
:1003B000DDCF833081F028F4813099F08230A9F0CC
:1003C00008958730A9F08830C9F08430B1F4809165
:1003D00080008F7D03C0809180008F7780938000A4
:1003E000089584B58F7784BD089584B58F7DFBCF44
:1003F0008091B0008F778093B00008958091B00015
:100400008F7DF9CFCF93DF9390E0FC01E458FF4F4D
:10041000249180579F4FFC0184918823C9F090E07C
:10042000880F991FFC01E854FF4FA591B491FC017E
:10043000E255FF4FC591D49161110DC09FB7F8945B
:100440008C91209582238C938881282328839FBFB9
:10045000DF91CF910895623051F49FB7F8943C91A9
:10046000822F809583238C93E8812E2BEFCF8FB73B
:10047000F894EC912E2B2C938FBFEACF1F93CF9340
:10048000DF93282F30E0F901E859FF4F8491F901FB
:10049000E458FF4FD491F901E057FF4FC491CC23AA
:1004A000A9F0162F81110E94D901EC2FF0E0EE0F78
:1004B000FF1FE255FF4FA591B4918FB7F894EC91CF
:1004C000111108C0D095DE23DC938FBFDF91CF914F
:1004D0001F910895DE2BF8CFCF93DF93282F30E0C4
:1004E000F901E859FF4F8491F901E458FF4FD49185
:1004F000F901E057FF4FC491CC23A1F081110E9474
:10050000D901EC2FF0E0EE0FFF1FEC55FF4FA59146
:10051000B491EC91ED2381E090E009F480E0DF916B
:10052000CF91089580E090E0FACFFC01918D228D6B
:10053000892F90E0805C9F4F821B91098F739927D0
:100540000895FC01918D828D981731F0828DE80F0E
:10055000F11D858D90E008958FEF9FEF0895FC01C8
:10056000918D828D981761F0A28DAE0FBF2FB11DB6
:100570005D968C91928D9F5F9F73928F90E008950E
:100580008FEF9FEF0895FC01538D448D252F30E0B0
:10059000842F90E0821B930B541710F0CF96089590
:1005A0000197089587EC93E0892B49F080E090E073
:1005B000892B29F00E94C70381110C940000089533
:1005C000FC01A48DA80FB92FB11DA35ABF4F2C91C8
:1005D000848D90E001968F739927848FA689B789BF
:1005E0002C93A089B1898C91837080648C93938DB6
:1005F000848D981306C00288F389E02D80818F7D59
:1006000080830895CF93DF93EC01888D8823B9F020
:10061000AA89BB89E889F9898C9185FD03C080810D
:1006200086FD0DC00FB607FCF7CF8C9185FFF2CF8A
:10063000808185FFEDCFCE010E94E002E9CFDF91FE
:10064000CF910895EF92FF920F931F93CF93DF9373
:10065000EC0181E0888F9B8D8C8D98131AC0E889FE
:10066000F989808185FF15C09FB7F894EE89FF89CD
:100670006083E889F98980818370806480839FBF6B
:1006800081E090E0DF91CF911F910F91FF90EF906B
:100690000895F62E0B8D10E00F5F1F4F0F7311277B
:1006A000E02E8C8D8E110CC00FB607FCFACFE889B6
:1006B000F989808185FFF5CFCE010E94E002F1CF5C
:1006C000EB8DEC0FFD2FF11DE35AFF4FF0829FB72A
:1006D000F8940B8FEA89FB8980818062CFCF1F92CB
:1006E0000F920FB60F9211242F938F939F93EF9336
:1006F000FF93E0915701F09158018081E0915D01F5
:10070000F0915E0182FD1BC09081809160018F5F3E
:100710008F7320916101821741F0E0916001F0E058
:10072000E95BFE4F958F80936001FF91EF919F9160
:100730008F912F910F900FBE0F901F901895808171
:10074000F4CF1F920F920FB60F9211242F933F9365
:100750004F935F936F937F938F939F93AF93BF93C9
:10076000EF93FF9387E491E00E94E002FF91EF9105
:10077000BF91AF919F918F917F916F915F914F91B9
:100780003F912F910F900FBE0F901F90189587E407
:1007900091E00E94950221E0892B09F420E0822F4C
:1007A0000895E7E4F1E01382128288EE93E0A0E07E
:1007B000B0E084839583A683B7838DE091E0918335
:1007C000808385EC90E09587848784EC90E0978720
:1007D000868780EC90E0918B808B81EC90E0938B0E
:1007E000828B82EC90E0958B848B86EC90E0978BEB
:1007F000868B118E128E138E148E089590E080E0F9
:100800000895AF92BF92CF92DF92EF92FF920F9333
:100810001F93CF93DF936C017B018B01040F151F96
:10082000EB015E01AE18BF08C017D10759F06991FE
:10083000D601ED91FC910190F081E02DC601099562
:10084000892B79F7C501DF91CF911F910F91FF900F
:10085000EF90DF90CF90BF90AF900895FB01019093
:100860000020E9F73197AF01461B570BDC01ED91F2
:10087000FC910280F381E02D0994EF92FF920F9397
:100880001F93CF93DF938C017B01D0E0C0E0F70191
:10089000EC0FFD1F6491662361F0D801ED91FC918E
:1008A0000190F081E02DC8010995892B11F0219666
:1008B000EECFCE01DF91CF911F910F91FF90EF907E
:1008C00008956BE171E00C942E048F929F92AF9289
:1008D000BF92EF92FF920F931F93CF93DF93CDB709
:1008E000DEB7A1970FB6F894DEBF0FBECDBF7C0177
:1008F000FA01CB0119A2223008F42AE08E010F5D23
:100900001F4F822E912CB12CA12CBF01A501940167
:100910000E94AE0BF901CA016A300CF5605DD80186
:100920006E938D01232B242B252B79F790E080E00B
:10093000109721F0BD01C7010E942E04A1960FB6A9
:10094000F894DEBF0FBECDBFDF91CF911F910F9105
:10095000FF90EF90BF90AF909F908F900895695C4B
:10096000DECF2115310541F4DC01ED91FC910190C0
:10097000F081E02D642F09940C9465049A01462FB0
:1009800050E070E060E00C94B1040F931F93CF939C
:10099000DF93EC010E94BE048C01CE010E94610431
:1009A000800F911FDF91CF911F910F91089581309A
:1009B00039F018F0823051F0089510926E000895C9
:1009C00080916F008D7F80936F00089580917000FB
:1009D0008D7F8093700081E08093B0008091B100A2
:1009E000887F84608093B1001092B3000895CF9304
:1009F000C82F80910401C8130DC0E2ECF0E084918F
:100A00009FEF909304010E94D70460E08C2FCF9158
:100A10000C943E028FEFF7CF1F920F920FB60F92FA
:100A200011242F933F934F935F936F937F938F93F3
:100A30009F93AF93BF93EF93FF938091E7019091C2
:100A4000E801A091E901B091EA01892B8A2B8B2B57
:100A5000D1F19091E401E091E501F091E60180810E
:100A6000892780838091E7019091E801A091E901B5
:100A7000B091EA01181619061A061B069CF480911B
:100A8000E7019091E801A091E901B091EA01019795
:100A9000A109B1098093E7019093E801A093E901CE
:100AA000B093EA01FF91EF91BF91AF919F918F9128
:100AB0007F916F915F914F913F912F910F900FBE5A
:100AC0000F901F901895809104010E94F704EACFBF
:100AD00008950E9441010E9468050E949909C2ED93
:100AE000D2E00E94D8092097E1F30E94D202F9CF08
:100AF00020912D0230912E0228173907B9F49091D8
:100B0000EB018091EC01981789F0E091EB01F0E0A6
:100B1000E351FE4F80812091EB0130E02F5F3F4F8A
:100B20002F7333272093EB0190E008958FEF9FEF11
:100B30000895EF92FF920F931F93CF93DF93DC0101
:100B40005C96ED90FC905D97E114F10479F481E0FE
:100B500090E013969C938E93129790E080E0DF9143
:100B6000CF911F910F91FF90EF9008955196ED91C5
:100B7000FC91529750968C915097982F90950FB763
:100B80005E962C915E97122F127021FD6095F8945D
:100B90002081112319F1282B2083E7012197F1F7F8
:100BA00028E0462F50E0308160FF1AC0382B308398
:100BB000E7012197F1F7BA0175956795215089F7FB
:100BC000112381F08081892380830FBF5C968D91F2
:100BD0009C910197F1F781E090E0C1CF2923DCCF10
:100BE0003923E5CF9081892BEFCF089520912D02F5
:100BF00030912E022817390771F49091EB01809102
:100C0000EC01981741F0E091EB01F0E0E351FE4F69
:100C1000808190E008958FEF9FEF089520912D023D
:100C200030912E022817390761F48091EC01209150
:100C3000EB0190E0805C9F4F821B91098F73992795
:100C4000089590E080E00895E0912D02F0912E0249
:100C5000E817F90769F4A389B4899C91858980957F
:100C600089238C9310922E0210922D0281E0089518
:100C700080E00895CF93DF93EC018A8D9B8D892BC3
:100C800001F180912D0290912E028C179D07C9F0E1
:100C9000009711F00E9424068E8D8E7F8E8F109209
:100CA000EC011092EB01D0932E02C0932D02EB8940
:100CB000FC8980819D89892B808381E0DF91CF91A0
:100CC000089580E0FBCF1F920F920FB60F92112470
:100CD0002F933F934F935F936F937F938F939F9344
:100CE000AF93BF93EF93FF93E0912D02F0912E020B
:100CF000309749F0A685B7858585968D91FF14C0FC
:100D00009C918923A1F4FF91EF91BF91AF919F91A5
:100D10008F917F916F915F914F913F912F910F90A4
:100D20000FBE0F901F9018959C91892361F7A3899E
:100D3000B4899C918589809589238C93868997892C
:100D40000197F1F7608D718DA685B785558538E0DF
:100D500020E0CB010197F1F7822F90E095958795E0
:100D6000282F4C91452309F02068315091F7868D4A
:100D700081FD20958091EC0190E001968F73992779
:100D80003091EB01381799F0A091EC01B0E0A3513C
:100D9000BE4F2C938093EC01828D938D0197F1F7D8
:100DA000A389B4898C919589892B8C93ACCF868D3E
:100DB0008160868FF1CF22E231E0FC013183208314
:100DC0000C9424061F93CF93DF93EC01162F6E8DA6
:100DD0006695617081E06827812F0E943E0261E084
:100DE000812F0E940202812F90E0FC01E458FF4F06
:100DF000E491E88BFC01E057FF4FE491F0E0EE0F47
:100E0000FF1FE255FF4F859194919A8B898BDF915B
:100E1000CF911F9108951F93CF93DF93EC01162F6D
:100E200060E0812F0E9402028E8D81FD04C061E08E
:100E3000812F0E943E021C87812F90E0FC01E45824
:100E4000FF4FE491ED87FC01E057FF4FE491F0E0A4
:100E5000EE0FFF1FEC55FF4F859194919F878E8772
:100E6000DF91CF911F9108951F93CF93DF93EC01F2
:100E7000162F1B821A8288EE93E0A0E0B0E08C83EC
:100E80009D83AE83BF8382E291E0998388831F8A2A
:100E90001E8A198E188E1B8E1A8E1D8E1C8E8E8D9C
:100EA0008E7F20FB81F98E8F642FCE010E94E20697
:100EB000612FCE01DF91CF911F910C940B07CF933F
:100EC000DF93EC019A01AB011B8E1A8E198E188EDE
:100ED0001F8A1E8A60E079E08DE390E00E94D00BCB
:100EE000F901C90103972430310510F481E090E045
:100EF0009D8F8C8F6C85663108F052C0C901969524
:100F000087958431910508F450C043979F8B8E8B51
:100F1000C9010597369710F481E090E0998F888F8A
:100F2000C901880F991F280F391F369527953695C7
:100F300027952D303105E0F12C5031093B8F2A8F58
:100F40009091680084E0683048F021E06E3008F449
:100F500020E081E001C0880F2A95EAF7892B809371
:100F600068009C852DE630E0983050F02BE630E0AC
:100F70009E3030F02CE630E0963110F030E020E08A
:100F80003C8B2B8B292F30E09830A8F481E001C0F6
:100F9000880F9A95EAF78D8B8C8D9D8D0197F1F7CF
:100FA000CE01DF91CF910C943A0681E090E0AECF74
:100FB00021E030E0C3CF9E3040F42850310981E079
:100FC00001C0880F2A95EAF7E6CF2E503109F7CFF6
:100FD0000C940F0CFF920F931F93CF93DF93EC01B0
:100FE000F62E08811981C8010E940F0CF81621F015
:100FF0006F2DC8010E94170CCE01DF91CF911F9178
:101000000F91FF900895CF93DF9300D0CDB7DEB757
:101010001A82198265EACE0101960E94EA07609160
:10102000080181E090E09A838983CE0101960E94B5
:10103000EA076091070182E090E09A838983CE01FC
:1010400001960E94EA076091060183E090E09A838E
:101050008983CE0101960E94EA070F900F90DF91DD
:10106000CF91089590E080E00E94E807853AF1F47E
:1010700081E090E00E94E80767E00E947A0B90937D
:10108000080182E090E00E94E80765E00E947A0B88
:101090009093070183E090E00E94E807853608F00E
:1010A00084E68A3008F48AE0809306010895E82FE8
:1010B00080910601689FC001112464E670E00E94DF
:1010C000860BF0E0E65CFE4F80810C947C01CF93B0
:1010D000C82F682F80E00E9457086C2F81E00E9483
:1010E00057086C2F82E0CF910C9457088F929F92F3
:1010F000AF92BF92CF92DF92EF92FF9269017A0195
:101100000E94AE0B9B01AC0146015701B694A79417
:1011100097948794281539054A055B0590F4AFEF3D
:10112000B0E00E94040CA50194010E94AE0B822F36
:10113000FF90EF90DF90CF90BF90AF909F908F90F7
:101140000895D701C601821B930BA40BB50B9C011C
:10115000AD01E5CF68ED70E089E392E00E943D04C7
:101160004AE050E06091080189E392E00E94BE04E9
:101170006CEC70E089E392E00E943D044AE050E0AC
:101180006091070189E392E00E94BE0463EC70E085
:1011900089E392E00E943D044AE050E0609106013C
:1011A00089E392E00C94C50490ED980F973088F491
:1011B00090930801109234020E9435016093350229
:1011C0007093360280933702909338020E9403088E
:1011D00020C08B3241F490910701943060F49F5FFE
:1011E00090930701F3CF8D3231F490910701992349
:1011F00011F09150F5CF9FE9980F9A3040F4805646
:101200009AE0899F802D112480930601DFCF8F33D0
:1012100011F40C94AA080895CF92DF92EF92FF92F6
:101220001F93CF93DF938EE00E946C02EC0111E0DC
:10123000892B09F410E00E9435016B017C0180913B
:101240000501882309F442C02097B1F5C09230020D
:10125000D0923102E0923202F092330210922F02C9
:1012600080912F02811124C080913002909131022F
:10127000A0913202B0913302A7019601281B390BCD
:101280004A0B5B0BDA01C901893E9340A105B10508
:1012900078F081E080932F028091070190E0019621
:1012A00065E070E00E949A0B809307010E9403089A
:1012B00080910501882361F010930501DF91CF91A2
:1012C0001F91FF90EF90DF90CF900895209741F20B
:1012D000CD2B91F380912F028111EECF80913002BE
:1012E00090913102A0913202B0913302A701960190
:1012F000281B390B4A0B5B0BDA01C9014F97A1057B
:10130000B105D0F28091080190E0019667E070E0AD
:101310000E949A0B8093080110923402C092350209
:10132000D0923602E0923702F09238020E9403080F
:10133000C3CF61E089E00E94020270E060E089E0D2
:101340000E947C0161E08AE00E94020270E060E09D
:101350008AE00E947C0161E08BE00E94020270E062
:1013600060E08BE00E947C0162E08EE00E9402025D
:1013700040E855E260E070E089E392E00E945F0798
:101380000E9432080E943501609335027093360244
:101390008093370290933802089520E040E163E1A2
:1013A00089E392E00C94340789E392E00C94DB0625
:1013B0004F925F926F927F928F929F92AF92BF9265
:1013C000CF92DF92EF92FF92CF93DF9300D000D0C5
:1013D0001F92CDB7DEB70E940C0989E392E00E940C
:1013E0000E06892B39F089E392E00E9478050E946D
:1013F000D408F3CF0E9435016B017C01E091070115
:10140000F0E0EE0FFF1FE05DFE4F20813181E091A3
:101410000801E73008F05AC0F0E0EF5EF54F0C9499
:10142000EF0B180A2E0A7A0AA60AB40AF20A460B29
:101430008FEF0F900F900F900F900F90DF91CF9143
:10144000FF90EF90DF90CF90BF90AF909F908F90E4
:101450007F906F905F904F900C9467088091350259
:1014600090913602A0913702B0913802B701A601DF
:10147000481B590B6A0B7B0BC901B0E0A0E0481771
:1014800059076A077B0790F080913402C0923502B9
:10149000D0923602E0923702F092380290E0019644
:1014A00063E070E00E949A0B80933402198261E03D
:1014B000809134029981891360E0619589810E944D
:1014C0005708A981AF5FA983A33089F70F900F90C8
:1014D0000F900F900F90DF91CF91FF90EF90DF90E2
:1014E000CF90BF90AF909F908F907F906F905F90C4
:1014F0004F9008958091350290913602A091370265
:10150000B0913802B701A601481B590B6A0B7B0B3F
:10151000C901B0E0A0E0481759076A077B0770F0DF
:10152000C0923502D0923602E0923702F092380231
:101530008091340291E089278093340281E0909178
:101540003402911101C080E0819573CF50E040E0FA
:1015500062E0220F331F441F551F6A95D1F7C70160
:10156000B6010E94760865CFC901B0E0A0E089838A
:101570009A83AB83BC83A3E0B0E00E94F50B2B0100
:101580003C0189809A80AB80BC80880C991CAA1C85
:10159000BB1CC40CD51CE61CF71C1D82C701B60180
:1015A000A30192010E94AE0B681579058A059B057F
:1015B000B8F4A50194010E947608682F8D810E94DD
:1015C00057089D819F5F9D8389819A81AB81BC81F2
:1015D000C81AD90AEA0AFB0A9D819330F9F676CF38
:1015E00080E0EBCF8091350290913602A0913702D6
:1015F000B0913802B701A601481B590B6A0B7B0B4F
:10160000C901B0E0A0E0481759076A077B0770F0EE
:1016100080913402C0923502D0923602E0923702B5
:10162000F092380291E089278093340261E0809142
:101630003402811101C060E0619580E00E9457088A
:1016400061E080913402811101C060E0619582E027
:101650000E94570861E080913402811160E0619539
:1016600081E00F900F900F900F900F90DF91CF912E
:10167000FF90EF90DF90CF90BF90AF909F908F90B2
:101680007F906F905F904F900C94570886E036954E
:1016900027958A95E1F72F5F3F4F50E040E0C70163
:1016A000B6010E94AE0BCA01B90120E033E040E070
:1016B00050E00E94AE0B9B01F62E862F80952F3FA7
:1016C000310591F088F02115324080F08983862F12
:1016D000F12C682F80E00E9457086F2D81E00E9456
:1016E0005708698182E0BDCF1982F3CF6983F82E54
:1016F00080E0EFCF991B79E004C0991F961708F09E
:10170000961B881F7A95C9F780950895AA1BBB1B65
:1017100051E107C0AA1FBB1FA617B70710F0A61BF1
:10172000B70B881F991F5A95A9F780959095BC0112
:10173000CD01089597FB072E16F4009407D077FD8E
:1017400009D00E94860B07FC05D03EF49095819548
:101750009F4F0895709561957F4F0895A1E21A2ECD
:10176000AA1BBB1BFD010DC0AA1FBB1FEE1FFF1F45
:10177000A217B307E407F50720F0A21BB30BE40B95
:10178000F50B661F771F881F991F1A9469F76095DC
:101790007095809590959B01AC01BD01CF01089596
:1017A000052E97FB1EF400940E94E70B57FD07D00F
:1017B0000E94AE0B07FC03D04EF40C94E70B50953F
:1017C0004095309521953F4F4F4F5F4F089590952D
:1017D0008095709561957F4F8F4F9F4F0895EE0FC5
:1017E000FF1F0590F491E02D0994A29FB001B39FD3
:1017F000C001A39F700D811D1124911DB29F700D1A
:10180000811D1124911D08950E94F50BA59F900D37
:10181000B49F900DA49F800D911D11240895F999F6
:10182000FECF92BD81BDF89A992780B50895262FE5
:10183000F999FECF1FBA92BD81BD20BD0FB6F894B5
:10184000FA9AF99A0FBE0196089510E0C1E7D0E028
:1018500004C0FE010E94EF0B2196C237D107C9F7E1
:04186000F894FFCF2A
:101864009C009C00FF0164020100000000220301AF
:1018740004C30202039502AF02A1020D0A00000094
:10188400000099050104FE03F5050E067805F6052A
:0E189400B00484038A02C2012C01090A0B0071
:00000001FF
