:100000000C94CA000C94F5000C941C010C94F200A2
:100010000C94540E0C94F2000C94F2000C942E0AE2
:100020000C94F2000C94F2000C94F2000C94F20088
:100030000C94F2000C94F2000C94F2000C94F20078
:100040000C9443010C94F2000C940F080C9441089A
:100050000C94F2000C94F2000C94F2000C94F20058
:100060000C94B3050C94F20000000008000201009B
:100070000003040700000000000000000102040863
:100080001020408001020408102001020408102002
:10009000040404040404040402020202020203032E
:1000A00003030303000000002300260029000000D2
:1000B0000000250028002B0000000000240027007D
:1000C0002A000241502D302E3120667720312E300B
:1000D00000495220646573636F6E6F6369646F3AA1
:1000E000200041502D302E3120667720312E3020D7
:1000F0002D204C65747265726F4C61622C20342027
:1001000063616E616C65732050574D202B207265C2
:100110006C657661646F72002C2274223A002C2286
:100120006F6666223A002C226F6E223A002C2275EE
:10013000223A002C226C76223A002C226C223A00C1
:100140002C2265223A005D2C2278223A002C226370
:10015000223A5B002C226368223A002C2262223A67
:1001600000222C2273223A002C226E223A22002CEA
:10017000226D223A007B2276223A2241502D302EE7
:100180003120667720312E30222C2270223A000056
:100190007108300C11241FBECFEFD8E0DEBFCDBFF9
:1001A00011E0A0E0B1E0E0EFF0E302C005900D92B5
:1001B000A43CB107D9F723E0A4ECB1E001C01D9243
:1001C000A839B207E1F710E0CAECD0E004C02197EB
:1001D000FE010E949417C83CD107C9F70E94CB0AC0
:1001E0000C9476180C94000008951F920F920FB68D
:1001F0000F9211242F933F934F935F936F937F93AD
:100200008F939F93AF93BF93EF93FF93E09104017C
:10021000F09105010995FF91EF91BF91AF919F91E9
:100220008F917F916F915F914F913F912F910F909F
:100230000FBE0F901F9018951F920F920FB60F923E
:1002400011242F933F934F935F936F937F938F93DB
:100250009F93AF93BF93EF93FF93E0910601F091CB
:1002600007010995FF91EF91BF91AF919F918F91F8
:100270007F916F915F914F913F912F910F900FBEA2
:100280000F901F9018951F920F920FB60F92112486
:100290002F933F938F939F93AF93BF938091C5010B
:1002A0009091C601A091C701B091C8013091C401DD
:1002B00023E0230F2D3758F50196A11DB11D209382
:1002C000C4018093C5019093C601A093C701B09368
:1002D000C8018091C9019091CA01A091CB01B09150
:1002E000CC010196A11DB11D8093C9019093CA0153
:1002F000A093CB01B093CC01BF91AF919F918F910F
:100300003F912F910F900FBE0F901F90189526E8E8
:10031000230F0296A11DB11DD2CF2FB7F894609183
:10032000C5017091C6018091C7019091C8012FBF8E
:1003300008953FB7F8948091C9019091CA01A091A6
:10034000CB01B091CC0126B5A89B05C02F3F19F079
:100350000196A11DB11D3FBFBA2FA92F982F882745
:10036000BC01CD01620F711D811D911D42E0660F20
:10037000771F881F991F4A95D1F70895789484B5FF
:10038000826084BD84B5816084BD85B5826085BD91
:1003900085B5816085BDEEE6F0E080818160808377
:1003A000E1E8F0E01082808182608083808181605A
:1003B0008083E0E8F0E0808181608083E1EBF0E021
:1003C000808184608083E0EBF0E0808181608083C5
:1003D000EAE7F0E0808184608083808182608083AE
:1003E0008081816080838081806880831092C100D9
:1003F00008958E3008F08E502091080190E4299FD6
:10040000900111248770822B80937C0080917A0068
:10041000806480937A0080917A0086FDFCCF809181
:1004200078009091790008951F93CF93DF93182F50
:10043000EB0161E00E949A02209739F460E0812F7D
:10044000DF91CF911F910C94D602CF3FD10511F4CB
:1004500061E0F5CFE12FF0E0E859FF4FE491E330A0
:1004600031F140F4E130B1F0E230E1F0C038D105D3
:100470007CF7E4CFE73029F1E83059F1E430B1F707
:1004800080918000806280938000D0938B00C09325
:100490008A0004C084B5806884BDC7BDDF91CF9158
:1004A0001F91089584B5806284BDC8BDF7CF809147
:1004B0008000806880938000D0938900C09388007A
:1004C000EDCF8091B00080688093B000C093B300FE
:1004D000E5CF8091B00080628093B000C093B400FB
:1004E000DDCF833081F028F4813099F08230A9F09B
:1004F00008958730A9F08830C9F08430B1F4809134
:1005000080008F7D03C0809180008F778093800072
:10051000089584B58F7784BD089584B58F7DFBCF12
:100520008091B0008F778093B00008958091B000E3
:100530008F7DF9CFCF93DF9390E0FC01E458FF4F1C
:10054000249180579F4FFC0184918823C9F090E04B
:10055000880F991FFC01E854FF4FA591B491FC014D
:10056000E255FF4FC591D49161110DC09FB7F8942A
:100570008C91209582238C938881282328839FBF88
:10058000DF91CF910895623051F49FB7F8943C9178
:10059000822F809583238C93E8812E2BEFCF8FB70A
:1005A000F894EC912E2B2C938FBFEACF1F93CF930F
:1005B000DF93282F30E0F901E859FF4F8491F901CA
:1005C000E458FF4FD491F901E057FF4FC491CC2379
:1005D000A9F0162F81110E947102EC2FF0E0EE0FAE
:1005E000FF1FE255FF4FA591B4918FB7F894EC919E
:1005F000111108C0D095DE23DC938FBFDF91CF911E
:100600001F910895DE2BF8CFCF93DF93282F30E092
:10061000F901E859FF4F8491F901E458FF4FD49153
:10062000F901E057FF4FC491CC23A1F081110E9442
:100630007102EC2FF0E0EE0FFF1FEC55FF4FA5917C
:10064000B491EC91ED2381E090E009F480E0DF913A
:10065000CF91089580E090E0FACF1092400281E0BF
:1006600080933E0210923D0261E082E10E94D60238
:1006700061E083E10E94D602E9EBF0E080818E7FA9
:10068000808380818D7F808388E48093B80085E4B7
:100690008093BC000895ECEBF0E080818A7B80833E
:1006A00060E082E10E94D60260E083E10C94D60211
:1006B0002091EF01260F3327331F21323105ECF44F
:1006C00020914002FC0190E080E0243069F082E05B
:1006D0000895A091EF012191AC014F505E4FA40FFE
:1006E000B52FB11D2C930196861798F38091EF01D9
:1006F000680F6093EF0180E0089581E00895909382
:100700003402809333020895909336028093350229
:10071000089585EC8093BC00109240020895CF9319
:10072000DF9391E090933802882361F0C091B80084
:10073000D091BA000E944B030E942D03D093BA00BF
:10074000C093B800DF91CF9108954F925F926F925E
:100750007F928F929F92AF92BF92CF92DF92EF9251
:10076000FF920F931F93CF93DF93D82F162F072F4E
:10077000C42FB22E413208F0A3C00E9499016B0130
:100780007C0180914002811176C081E0809340021B
:10079000B0923E029FEF9093CD01109212029C0FF7
:1007A0009093110280933F0280913F02DD0FD82B7E
:1007B000D0933F0280913D02813009F083C01092B6
:1007C0003D020E9499016B017C0180913F02809360
:1007D000BB008091390290913A02A0913B02B09106
:1007E0003C02892B8A2B8B2BA1F00E9499018090CF
:1007F000390290903A02A0903B02B0903C026C19F2
:100800007D098E099F0986169706A806B90608F481
:1008100053C08091BC0083FDD8CF85EC8093BC0091
:100820000E9499016B017C0180914002813009F4A2
:100830004BC0809112028C1710F4C0911202A3E1F8
:10084000B2E0912FE12FF02F8E2F891B8C1708F427
:100850005DC08C2FDF91CF911F910F91FF90EF9092
:10086000DF90CF90BF90AF909F908F907F906F90D0
:100870005F904F9008958091390290913A02A09133
:100880003B02B0913C02892B8A2B8B2B09F479CF48
:100890000E9499014090390250903A0260903B02C8
:1008A00070903C026C197D098E099F094616570607
:1008B0006806790608F065CF809137020E948F03A1
:1008C000C0E0C7CF85EEAACF8091390290913A025D
:1008D000A0913B02B0913C02892B8A2B8B2B09F40F
:1008E000A3CF0E9499018090390290903A02A09083
:1008F0003B02B0903C026C197D098E099F09861657
:100900009706A806B90608F08FCFD6CF8D918193B0
:100910009BCF4F925F926F927F928F929F92AF92F6
:10092000BF92EF92FF920F931F93CF93DF934132C9
:1009300008F0D9C0F22ED42FE72E162FC82F0E9410
:1009400099014B015C0180914002811170C082E0ED
:100950008093400200933E028FEF8093CD0110926E
:100960001202D0931102912FA3E1B2E0E12FFE2DEC
:100970008E2F891B8D1708F48FC010923F02809133
:100980003F02CC0FC82BC0933F0280913D028130C3
:1009900009F085C010923D020E9499014B015C0153
:1009A00080913F028093BB008091390290913A027E
:1009B000A0913B02B0913C02892B8A2B8B2BA1F09A
:1009C0000E9499010091390210913A0220913B0254
:1009D00030913C02681979098A099B0906171707A3
:1009E0002807390708F444C08091BC0083FDD8CFA4
:1009F00085EC8093BC000E9499014B015C01FF20B3
:100A000029F080914002823009F44BC08091CD01E1
:100A10008F3F09F46AC08091CD01803209F467C02C
:100A20008091CD01803309F464C084E026C08091B8
:100A3000390290913A02A0913B02B0913C02892B7D
:100A40008A2B8B2B09F47FCF0E94990140903902A9
:100A500050903A0260903B0270903C02681979090C
:100A60008A099B09461657066806790608F06BCF77
:100A7000809137020E948F0385E0DF91CF911F9113
:100A80000F91FF90EF90BF90AF909F908F907F90CD
:100A90006F905F904F90089581918D9369CF85EE0F
:100AA000A8CF8091390290913A02A0913B02B09177
:100AB0003C02892B8A2B8B2B09F4A1CF0E94990130
:100AC0000091390210913A0220913B0230913C0290
:100AD000681979098A099B09061717072807390732
:100AE00008F08DCFC5CF81E0C8CF80E0C6CF82E0CF
:100AF000C4CF83E0C2CF85ED8093BC0080913902E2
:100B000090913A02A0913B02B0913C020796A11D40
:100B1000B11D23E0B695A795979587952A95D1F7AE
:100B20002091BC0024FD03C0109240020895409122
:100B3000390250913A0260913B0270913C02452B80
:100B4000462B472B69F30097A105B10541F02AE236
:100B50002A95F1F700C00197A109B109E1CF809171
:100B600037020C948F031F920F920FB60F9211242D
:100B70002F933F934F935F936F937F938F939F93A5
:100B8000AF93BF93EF93FF938091B900887F803636
:100B900009F44CC008F03FC0883209F4A8C018F529
:100BA000803109F49CC0B8F4882309F4F9C0883076
:100BB00009F495C0FF91EF91BF91AF919F918F91F3
:100BC0007F916F915F914F913F912F910F900FBE49
:100BD0000F901F901895883109F489C0803251F721
:100BE0008093CD0115C0803409F49EC048F4803351
:100BF000B9F38833F9F68093CD010E948903DACFE7
:100C0000803509F485C0883509F496C0883491F69A
:100C10000E947B05CFCF883909F48CC038F588371E
:100C200029F050F4883611F0803721F683E0809364
:100C300040021092CE0157C0883809F47BC0803939
:100C400019F0803809F0B6CF8091CE01803208F0DB
:100C500071C0E091CE0181E08E0F8093CE01809132
:100C6000BB00F0E0E153FE4F80833DC0803B39F094
:100C7000E0F4803A09F479C0883A09F09BCF84E027
:100C8000809340021092F0011092EF01E091350242
:100C9000F091360209958091EF0181110FC081E03A
:100CA0008093EF011092F10109C0803C09F476C0F5
:100CB000883C09F473C0883B09F07CCFE091F001D7
:100CC00081E08E0F8093F001F0E0EF50FE4F8081C5
:100CD0008093BB009091F0018091EF0129C0809139
:100CE0003F028093BB0085EC8093BC0063CF909162
:100CF000120280911102981758F5E091120281E0DA
:100D00008E0F80931202F0E0ED5EFD4F8081E9CFFF
:100D1000E091120281E08E0F809312028091BB005D
:100D2000F0E0ED5EFD4F8083909112028091110200
:100D30009817C8F285E8D8CFE091120281E08E0FB3
:100D4000809312028091BB00F0E0ED5EFD4F808346
:100D500080913E0281115CCF81E080933D0284EA64
:100D60008093BC001092400225CF0E94890380919D
:100D7000CE01803230F4E091CE01F0E0E153FE4F3D
:100D800010826091CE0170E0E0913302F091340264
:100D90008FEC91E009951092CE010CCF85ECE0CF5D
:100DA0001092CD0135CFFC01918D228D892F90E0DD
:100DB000805C9F4F821B91098F7399270895FC01D6
:100DC000918D828D981731F0828DE80FF11D858D00
:100DD00090E008958FEF9FEF0895FC01918D828D33
:100DE000981761F0A28DAE0FBF2FB11D5D968C914B
:100DF000928D9F5F9F73928F90E008958FEF9FEF8A
:100E00000895FC01538D448D252F30E0842F90E010
:100E1000821B930B541710F0CF96089501970895F5
:100E200087E698E0892B49F080E090E0892B29F053
:100E30000E94670881110C9400000895FC01A48DA4
:100E4000A80FB92FB11DA35ABF4F2C91848D90E0EC
:100E500001968F739927848FA689B7892C93A089CF
:100E6000B1898C91837080648C93938D848D981359
:100E700006C00288F389E02D80818F7D80830895EC
:100E8000CF93DF93EC01888D8823B9F0AA89BB89C1
:100E9000E889F9898C9185FD03C0808186FD0DC0AC
:100EA0000FB607FCF7CF8C9185FFF2CF808185FFCD
:100EB000EDCFCE010E941E07E9CFDF91CF910895BB
:100EC000EF92FF920F931F93CF93DF93EC0181E09A
:100ED000888F9B8D8C8D98131AC0E889F989808141
:100EE00085FF15C09FB7F894EE89FF896083E88974
:100EF000F98980818370806480839FBF81E090E066
:100F0000DF91CF911F910F91FF90EF900895F62EF2
:100F10000B8D10E00F5F1F4F0F731127E02E8C8D8C
:100F20008E110CC00FB607FCFACFE889F9898081D1
:100F300085FFF5CFCE010E941E07F1CFEB8DEC0FA0
:100F4000FD2FF11DE35AFF4FF0829FB7F8940B8FEE
:100F5000EA89FB8980818062CFCFCF92DF92EF92C6
:100F6000FF921F93CF93DF93EC016A017B01122F55
:100F7000E889F98982E08083C11481EED806E10412
:100F8000F104A1F060E079E08DE390E0A701960123
:100F90000E9453172150310941095109569547952F
:100FA00037952795211580E1380798F0E889F98968
:100FB000108260E874E88EE190E0A70196010E943B
:100FC00053172150310941095109569547953795D5
:100FD0002795EC85FD853083EE85FF852083188E6F
:100FE000EC89FD891083EA89FB8980818061808397
:100FF000EA89FB89808188608083EA89FB89808116
:1010000080688083EA89FB8980818F7D8083DF917E
:10101000CF911F91FF90EF90DF90CF9008951F9296
:101020000F920FB60F9211242F938F939F93EF93EC
:10103000FF93E0915102F09152028081E0915702BA
:10104000F091580282FD1BC0908180915A028F5FFF
:101050008F7320915B02821741F0E0915A02F0E019
:10106000EF5BFD4F958F80935A02FF91EF919F9117
:101070008F912F910F900FBE0F901F901895808128
:10108000F4CF1F920F920FB60F9211242F933F931C
:101090004F935F936F937F938F939F93AF93BF9380
:1010A000EF93FF9381E492E00E941E07FF91EF917E
:1010B000BF91AF919F918F917F916F915F914F9170
:1010C0003F912F910F900FBE0F901F90189581E4C4
:1010D00092E00E94D30621E0892B09F420E0822FC0
:1010E0000895E1E4F2E01382128288EE93E0A0E03A
:1010F000B0E084839583A683B78384E191E09183F4
:10110000808385EC90E09587848784EC90E09787D6
:10111000868780EC90E0918B808B81EC90E0938BC4
:10112000828B82EC90E0958B848B86EC90E0978BA1
:10113000868B118E128E138E148E089590E080E0AF
:101140000895AF92BF92CF92DF92EF92FF920F93EA
:101150001F93CF93DF936C017B018B01040F151F4D
:10116000EB015E01AE18BF08C017D10759F06991B5
:10117000D601ED91FC910190F081E02DC601099519
:10118000892B79F7C501DF91CF911F910F91FF90C6
:10119000EF90DF90CF90BF90AF900895FB0101904A
:1011A0000020E9F73197AF01461B570BDC01ED91A9
:1011B000FC910280F381E02D0994EF92FF920F934E
:1011C0001F93CF93DF938C017B01D0E0C0E0F70148
:1011D000EC0FFD1F6491662361F0D801ED91FC9145
:1011E0000190F081E02DC8010995892B11F021961D
:1011F000EECFCE01DF91CF911F910F91FF90EF9035
:1012000008956115710511F00C94CE0890E080E00E
:101210000895DC01ED91FC910190F081E02D09949D
:1012200062E271E00C94CE080F931F93CF93DF938B
:10123000EC010E94DD088C01CE010E941009800F94
:10124000911FDF91CF911F910F9108950F931F93DD
:10125000CF93DF93EC010E9409098C01CE010E941B
:101260001009800F911FDF91CF911F910F91089569
:101270008F929F92AF92BF92EF92FF920F931F9324
:10128000CF93DF93CDB7DEB7A1970FB6F894DEBF4B
:101290000FBECDBF7C01FA01CB0119A2223008F4A8
:1012A0002AE08E010F5D1F4F822E912CB12CA12CB4
:1012B000BF01A50194010E945317F901CA016A30C8
:1012C0000CF5605DD8016E938D01232B242B252B0B
:1012D00079F790E080E0109721F0BD01C7010E94EE
:1012E000CE08A1960FB6F894DEBF0FBECDBFDF913A
:1012F000CF911F910F91FF90EF90BF90AF909F9073
:101300008F900895695CDECFCF92DF92EF92FF92CB
:101310000F931F93CF93DF932115310581F4DC01E7
:10132000ED91FC910190F081E02D642FDF91CF9140
:101330001F910F91FF90EF90DF90CF9009942A308A
:10134000310501F52AE077FF1DC06A017B01EC0140
:101350006DE20E9409098C0144275527BA014C19F6
:101360005D096E097F092AE0CE010E943809800FCD
:10137000911FDF91CF911F910F91FF90EF90DF9020
:10138000CF900895DF91CF911F910F91FF90EF9033
:10139000DF90CF900C9438099A01AB01770F660B60
:1013A000770B0C9484092115310541F4DC01ED9192
:1013B000FC910190F081E02D642F09940C94380980
:1013C0009A01462F50E070E060E00C94D3090F932F
:1013D0001F93CF93DF93EC010E94D3098C01CE01C0
:1013E0000E941009800F911FDF91CF911F910F91E3
:1013F0000895813039F018F0823051F0089510923C
:101400006E00089580916F008D7F80936F00089526
:10141000809170008D7F8093700081E08093B00098
:101420008091B100887F84608093B1001092B300F6
:101430000895CF93C82F80910901C8130DC0E2EC25
:10144000F0E084919FEF909309010E94F90960E018
:101450008C2FCF910C94D6028FEFF7CF1F920F9263
:101460000FB60F9211242F933F934F935F936F9377
:101470007F938F939F93AF93BF93EF93FF9380914D
:10148000E1029091E202A091E302B091E402892B83
:101490008A2B8B2BD1F19091DE02E091DF02F0914B
:1014A000E0028081892780838091E1029091E202AD
:1014B000A091E302B091E402181619061A061B0661
:1014C0009CF48091E1029091E202A091E302B0913C
:1014D000E4020197A109B1098093E1029093E2022D
:1014E000A093E302B093E402FF91EF91BF91AF911B
:1014F0009F918F917F916F915F914F913F912F912C
:101500000F900FBE0F901F901895809109010E94B7
:10151000190AEACF611571058105910511F00C9446
:101520004F180895CF92DF92EF92FF926B017C01EA
:10153000C114D104E104F10441F00E940018A70194
:1015400096010E9475176B017C01C701B601FF90DF
:10155000EF90DF90CF900895CF92DF92EF92FF92BD
:101560006B017C01C216D306E406F50664F4CA01D9
:10157000B9016C197D098E099F090E94920AC60E55
:10158000D71EE81EF91EC701B601FF90EF90DF904D
:10159000CF90089508950E94BE010E94CA0A0E9439
:1015A0005712C0E1D7E00E9486162097E1F30E940F
:1015B0001007F9CF8091190390911A03891B990B99
:1015C000089590911A03809119032FEF3FEF981718
:1015D00048F4E92FF0E0E55EFC4F208130E09F5FAA
:1015E00090931A03C9010895E0911A038091190399
:1015F000E81730F4F0E0E55EFC4F808190E008955C
:101600008FEF9FEF08950895CF93DF93EC01E09162
:10161000F102F091F2023097F1F090911A0380916B
:1016200019039817C0F090E0292F30E026173707EC
:1016300054F4DE01A20FB31F4C91255E3C4FD9013B
:101640004C939F5FF1CF10921A0360931903CB0163
:10165000DF91CF910994DF91CF910895E091F3024A
:10166000F091F402309729F01092F7021092F602EE
:1016700009940895CF93DF931F92CDB7DEB76983A6
:101680002091F5022223F9F02091F602203258F041
:1016900021E030E0FC013383228390E080E00F9072
:1016A000DF91CF9108958091F702E82FF0E0E850A4
:1016B000FD4F998190838F5F8093F7028093F602AC
:1016C00081E090E0ECCF61E0CE0101960E945803EA
:1016D000F7CFCF92DF92EF92FF920F931F93CF93AA
:1016E000DF937C01CB018A012091F502222389F04E
:1016F000EB016B01C40ED51ECC15DD0569F06991B7
:10170000D701ED91FC910190F081E02DC701099581
:10171000F3CF642F0E945803C801DF91CF911F912E
:101720000F91FF90EF90DF90CF90089510921A03E1
:10173000109219031092F7021092F6020E942D03E4
:101740008EE29BE00E94840384E09BE00C947F0384
:1017500081E08093F502609318031092F7021092D3
:10176000F60208950C94A80B0F93062F21E04091E8
:10177000F60268EF72E0809118030E9489041092CB
:10178000F7021092F6021092F5020F9108954F920F
:101790005F926F927F92AF92BF92CF92EF92FF9241
:1017A0000F931F93CF93DF935C01F62ED42F280164
:1017B0003901EE2019F10E94A80BCE2DC43008F09B
:1017C000C3E0C150B8F028E0C29FC0011124A301BA
:1017D000920104C056954795379527958A95D2F77B
:1017E000B901D501ED91FC910190F081E02DC50189
:1017F0000995E7CF60E0C5010E94B40B4D2FD132AF
:1018000008F040E22C2D6BE173E08F2D0E94A503C0
:1018100010921A0380931903DF91CF911F910F91BA
:10182000FF90EF90CF90BF90AF907F906F905F90C0
:101830004F900895CF92EF920F931F93C22EE12CF9
:1018400000E010E098010E94C70B1F910F91EF90EC
:10185000CF90089521E00C941A0C61E00C94B40B25
:10186000E5EEF2E01382128288EE93E0A0E0B0E0B1
:1018700084839583A683B78389E291E091838083F3
:101880000895AF92BF92DF92EF92FF920F931F9352
:10189000CF93DF935C0105E813E0D0E0C0E0F801EE
:1018A000D1908F017501EC0EFD1EC7010E945818E2
:1018B000D81621F06D2DC7010E9460182196C33102
:1018C000D10569F785E893E0DF91CF911F910F91E2
:1018D000FF90EF90DF90BF90AF900895CF92DF928E
:1018E000EF92FF920F931F93CF93DF93EB017B0156
:1018F00023E1E20EF11C8B016C01C61AD70AC60166
:10190000800F911F0E945818F80181938F01EE15E6
:10191000FF05A9F7CE01DF91CF911F910F91FF90A5
:10192000EF90DF90CF90089590E080E00C94410C10
:1019300065E873E090E080E00E946E0C8091850382
:10194000873A21F4809186038A3048F083E1E8E405
:10195000F1E0A5E8B3E001900D928A95E1F70895D2
:10196000843040F423E1829FC0011124805C9F4FAA
:101970000C94410C0895CF93DF93CDB7DEB76397F6
:101980000FB6F894DEBF0FBECDBF8430E0F423E184
:10199000829FC0011124BE016F5F7F4F805C9F4F0B
:1019A0000E946E0C8981873A71F48A818A3058F4DA
:1019B00083E1FE013196A5E8B3E001900D928A958E
:1019C000E1F70E94940C63960FB6F894DEBF0FBE49
:1019D000CDBFDF91CF910895E82FF0E094E0F59529
:1019E000E7959A95E1F7E95CFE4F60814181461BDE
:1019F000550B8F70849F9001859F300D1124C90174
:101A000024E0969587952A95E1F7860F0895CF9360
:101A1000C82F8091880390918C03992319F08D33FE
:101A200008F08CE3689FC001112464E670E00E9416
:101A30002B17862F0E94EC0C682F70E0EC2FF0E043
:101A4000E154FE4F8081CF910C941402CF93DF9329
:101A5000D82FC0E080918903C81730F46D2F8C2FE8
:101A60000E94070DCF5FF6CFDF91CF91089570E010
:101A700060E08BE00E94140270E060E08AE00E9467
:101A8000140270E060E089E00E94140270E060E0FF
:101A900086E00C9414028F929F92AF92BF92CF92E5
:101AA000DF92EF92FF9269017A010E9453179B0126
:101AB000AC0146015701B694A794979487942815D2
:101AC00039054A055B0590F4AFEFB0E00E94A91715
:101AD000A50194010E945317822FFF90EF90DF9091
:101AE000CF90BF90AF909F908F900895D701C6017F
:101AF000821B930BA40BB50B9C01AD01E5CFCF93DB
:101B0000DF93EB01DA01F9018F3F910509F040F411
:101B1000982F909598838C931082DF91CF910895A0
:101B2000811522E0920738F418829A95982F9095A3
:101B30009C938083F2CF925088831C928095F9CF3A
:101B4000982F92959F708F702AE0929F800D11249C
:101B500008956AE00E941F17292F30E1839FC0017A
:101B60001124822B0895CF92DF92EF92FF920F9370
:101B70001F930E94990100917303109174032091A7
:101B80007503309176036B017C01C01AD10AE20A19
:101B9000F30A6093730370937403809375039093B7
:101BA000760341EEC4164EE2D406E104F10418F0C7
:101BB0001092720312C081E1C81687E2D806E104D0
:101BC000F10490F081E080937203109277031092F9
:101BD00078031092790310927A031F910F91FF906E
:101BE000EF90DF90CF90089541E4C4164FE1D40602
:101BF000E104F10498F08091720381110FC081E03B
:101C0000809371038FEF9FEFDC0180937B039093B0
:101C10007C03A0937D03B0937E03DFCF809172039A
:101C20008823D9F28091770390917803A09179036A
:101C3000B0917A03880F991FAA1FBB1F01E010E023
:101C400020E030E045EAC41646E0D406E104F104A1
:101C500018F400E010E09801802B912BA22BB32BFD
:101C60008093770390937803A0937903B0937A03DA
:101C7000809172038F5F80937203813208F4ADCF3D
:101C80008091770390917803A0917903B0917A03C2
:101C900080937B0390937C03A0937D03B0937E039A
:101CA00081E08093710384CF1F920F920FB60F9241
:101CB00011242F933F934F935F936F937F938F9351
:101CC0009F93AF93BF93EF93FF93329B0E94B30D0B
:101CD000FF91EF91BF91AF919F918F917F916F9104
:101CE0005F914F913F912F910F900FBE0F901F90DA
:101CF0001895DC01ED91FC9111978081803229F4D7
:101D000031961196FC93EE93F5CF40E08D3229F495
:101D100031961196FC93EE9341E090E080E05AE01A
:101D2000ED91FC911197208130ED320F3A30A0F403
:101D3000589FB001599F700D1124CF010196119643
:101D40009C938E932081022E000C330B205331097B
:101D5000C901860F971FE4CF2A3319F02C52223085
:101D600018F43196ED93FC93442319F091958195E5
:101D7000910908958F929F92AF92BF92CF92DF9276
:101D8000EF92FF921F93CF93DF938FE00E940403A3
:101D9000EC0111E0892B09F410E00E948D016B0128
:101DA0007C0180910B01882309F46AC0209709F017
:101DB00059C0C0924403D0924503E0924603F0928A
:101DC00047031092430380914303811124C0809103
:101DD000440390914503A0914603B0914703460107
:101DE0005701881A990AAA0ABB0AD501C401893E7B
:101DF0009340A105B10578F081E080934303809181
:101E0000870390E002966AE070E00E943F1780939B
:101E100087030E94940C909143039130F9F4409110
:101E20004403509145036091460370914703460176
:101E30005701841A950AA60AB70AB501A401493BBD
:101E40005B406105710550F082E08093430380910F
:101E50008A03892780938A030E94940C80910B0146
:101E6000882389F010930B01DF91CF911F91FF9090
:101E7000EF90DF90CF90BF90AF909F908F9008959C
:101E8000209709F4A0CFCD2B69F3809143038111F2
:101E9000E9CF8091440390914503A0914603B0910E
:101EA0004703C81AD90AEA0AFB0A3FE1C316D1045C
:101EB000E104F104B8F28091860390E001966AE0B3
:101EC00070E00E943F1780938603109280030E9467
:101ED000940CC8CFCF92DF92EF92FF926B017C01FE
:101EE0008FEFC816D806E806F80609F040C0C09083
:101EF0003F03D0904003E0904103F09042038FE510
:101F0000C81680EAD80687EFE806F10409F4B7C0DE
:101F100008F04EC08FEBC81680E4D80687EFE806BD
:101F2000F10409F493C060F58FEFC816D10487EF70
:101F3000E806F10409F48DC08FEDC81680E2D806DA
:101F400087EFE806F10409F48DC061ED70E081E4EB
:101F500092E00E94DD0820E130E0B701A60181E4B3
:101F600092E0FF90EF90DF90CF900C94E709C09241
:101F70003F03D0924003E0924103F0924203BFCF6F
:101F80008FE9C81680E6D80687EFE806F10409F461
:101F90007FC08FE7C81680E8D80687EFE806F1040F
:101FA000A1F680918803843108F484E18A5057C0F7
:101FB0008FE2C81680EDD80687EFE806F10409F431
:101FC00072C098F48FE3C81680ECD80687EFE80655
:101FD000F10499F187E3C81688ECD80687EFE80684
:101FE000F10409F0B2CF84E05FC087E1C81688EE43
:101FF000D80687EFE806F10409F45BC08FE0C81645
:1020000080EFD80687EFE806F10409F450C08FE1AD
:10201000C81680EED80687EFE806F10409F095CFE0
:1020200086E0809386038FEF80938E0380938F03E7
:10203000809390038093910303C081E080938A038F
:10204000FF90EF90DF90CF900C94940C10928A0345
:10205000F7CF809188038B3508F08AE5865F8093FF
:102060008803EECF86E0809386038FEF80938E0304
:1020700010928F031092900310929103E1CF86E0AB
:102080008093860310928E038FEF80938F03F2CF9D
:1020900086E08093860310928E0310928F038FEF59
:1020A00080939003E9CF88E080938603C9CF82E0D4
:1020B000FBCF87E0F9CF4F925F926F927F928F9222
:1020C0009F92AF92BF92CF92DF92EF92FF920F93C7
:1020D0001F93CF93DF9300D000D000D01F92CDB7D5
:1020E000DEB72091870334E7239FD001B21B112470
:1020F000A452BA4F10918903E0918603EA3008F0A8
:1021000088C06B017C01F0E0E857FF4E0C949417F7
:10211000F411A210DA1020112D11641192109C11EB
:10212000D711F611AEE8EA2EA3E0FA2E00E001176F
:1021300009F46FC0D7016D917D01802F0E94070DBA
:102140000F5FF5CF4091810350918203609183032B
:102150007091840346015C01841A950AA60AB70AA5
:10216000B501A401CD01B0E0A0E0481759076A0706
:102170007B0790F0C0928103D0928203E0928303A8
:10218000F09284038091800390E00196612F70E0CB
:102190000E943F178093800300E00117D1F161E0B6
:1021A00080918003801360E06195802F0E94070D6D
:1021B0000F5FF3CF409181035091820360918303BD
:1021C000709184039C018601041B150B260B370BB1
:1021D000B901A801CD01B0E0A0E0481759076A078E
:1021E0007B0770F080918003C0928103D0928203BC
:1021F000E0928303F092840391E089278093800327
:1022000081E090918003911101C080E081950E944E
:10221000260D27960FB6F894DEBF0FBECDBFDF9117
:10222000CF911F910F91FF90EF90DF90CF90BF90D3
:10223000AF909F908F907F906F905F904F90089598
:102240009D0150E040E0F2E0220F331F441F551F74
:10225000FA95D1F70E944B0DDACF4D01B12CA12C8C
:102260008C829D82AE82BF82212F30E00E949A171D
:102270002B013C01880C991CAA1CBB1CC40CD51C4E
:10228000E61CF71C00E0011721F2C701B601A3010B
:1022900092010E945317681579058A059B0590F4F1
:1022A000A50194010E944B0D682F802F0E94070DFD
:1022B0000F5F2C813D814E815F81C21AD30AE40AEF
:1022C000F50AE1CF80E0F0CF409181035091820385
:1022D000609183037091840346015C01841A950A1E
:1022E000A60AB70AB501A401CD01B0E0A0E04817E5
:1022F00059076A077B0770F0C0928103D09282036E
:10230000E0928303F09284038091800391E0892717
:102310008093800300E0011709F47BCF61E0909186
:102320008003802F8170891301C060E06195802F48
:102330000E94070D0F5FEFCF9D0176E03695279540
:102340007A95E1F72F5F3F4F50E040E0B6010E94E1
:102350005317CA01B90120E033E040E050E00E9489
:102360005317CB019E012F5F3F4FAE014E5F5F4F72
:10237000BE016D5F7F4F0E947F0D6B8180E00E94E8
:10238000070D123008F445CF6A8181E00E94070DE5
:10239000123009F43ECF698182E00E94070D1330AC
:1023A00009F437CF60E083E00E94070D32CF9D0132
:1023B00050E040E0220F331F441F551FB6010E941A
:1023C00053176C3371058105910570F0AB01BC01A9
:1023D000455B51096109710981E04B335105610584
:1023E000710508F413CF11CF8FEF11CF80918103C6
:1023F00090918203A0918303B09184034B01570114
:10240000881A990AAA0ABB0AD501C401CD97A10569
:10241000B105A0F0C0928103D0928203E0928303C1
:10242000F09284032AE630E040E050E060E070E0A3
:10243000CB010E94AC0A6A5660930A018EE8E82E2E
:1024400083E0F82E00E0CC24CA94D12C011709F4C3
:10245000E0CED7018D917D0190910A01899FC00145
:102460001124B6010E942B17802F0E94070D0F5FC9
:10247000EDCF9C01809192039091930397FD15C03D
:1024800037FD13C0409194035091950348175907A5
:102490004CF02817390724F081E02417350734F071
:1024A00080E0089528173907BCF381E008951F9351
:1024B000CF93DF93CFEBD1E0199161E0812F0E94A0
:1024C0009A0270E060E0812F0E94140281E0C33C18
:1024D000D80791F761E08CE00E949A0260E08CE0FE
:1024E0000E94D60261E081E10E949A0262E08FE0E0
:1024F0000E949A0262E080E10E949A0262E08EE00D
:102500000E949A0226E040E855E260E070E081E433
:1025100092E00E94AD0785EE92E00E94960B68E67D
:1025200070E085EE92E00E94B20B85EE92E00E9490
:102530002D0C91E0811190E090937F030E94980C04
:1025400084E10E94F901BC01990F880B990B0E944C
:102550008A0A8091680082608093680080916C0094
:10256000846080936C0063EC70E081E492E0DF9122
:10257000CF911F910C941409CF93DF9380917F0327
:10258000811105C08FEF9FEFDF91CF91089568E62D
:1025900070E085EE92E00E94B20B61E085EE92E081
:1025A0000E943A0B85EE92E00E942D0C8111EACF39
:1025B00042E050E068E670E085EE92E00E942A0C6E
:1025C00085EE92E00E94DA0A0297E4F285EE92E04C
:1025D0000E94E10A0E94A00DC82F85EE92E00E94A1
:1025E000E10A8F730E94A00DD0E09E014CE3849F0E
:1025F000200D311D1124C901C7CFEF92FF920F9317
:102600001F93CF930E94BC128C0165E771E080910B
:102610000C0190910D010E94DD084AE050E06091AC
:102620008A0380910C0190910D010E94E0096FE6F0
:1026300071E080910C0190910D010E94DD084AE04B
:1026400050E06091860380910C0190910D010E94F1
:10265000E00968E671E080910C0190910D010E9403
:10266000DD08E0918603F0E0EE0FFF1FE555FE4F19
:102670006081718180910C0190910D010E9401098E
:1026800061E671E080910C0190910D010E94DD08DE
:102690004AE050E06091870380910C0190910D0118
:1026A0000E94E0096BE571E080910C0190910D01B1
:1026B0000E94DD084AE050E06091880380910C019F
:1026C00090910D010E94E00964E571E080910C0198
:1026D00090910D010E94DD084AE050E0609189036D
:1026E00080910C0190910D010E94E0096DE471E070
:1026F00080910C0190910D010E94DD089EE8E92E69
:1027000093E0F92EC0E0F70161917F014AE050E0CB
:1027100080910C0190910D010E94E009C33039F0C5
:102720006CE280910C0190910D010E940909CF5F2C
:10273000C43049F766E471E080910C0190910D017D
:102740000E94DD084AE050E060918B0380910C010B
:1027500090910D010E94E00960E471E080910C010C
:1027600090910D010E94DD084AE050E060918C03D9
:1027700080910C0190910D010E94E0096AE371E0E3
:1027800080910C0190910D010E94DD084AE050E01B
:1027900060918D0380910C0190910D010E94E009E0
:1027A00063E371E080910C0190910D010E94DD08BE
:1027B000E0900C01F0900D018EE00E94F9014AE0DA
:1027C00050E0BC01C7010E94CC096DE271E080912C
:1027D0000C0190910D010E94DD08609196037091AB
:1027E00097034AE050E080910C0190910D010E9406
:1027F000CC0966E271E080910C0190910D010E947C
:10280000DD0860919203709193034AE050E080915B
:102810000C0190910D010E94CC096EE171E0809154
:102820000C0190910D010E94DD086091940370915C
:1028300095034AE050E080910C0190910D010E94B7
:10284000CC0968E171E080910C0190910D010E942A
:10285000DD084AE050E0B80180910C0190910D0133
:102860000E94CC096DE780910C0190910D01CF91F0
:102870001F910F91FF90EF900C942609DF92EF9239
:10288000FF920F931F93CF93DF93EC01162FF42E3B
:10289000D22E68E670E085EE92E00E94B20B60E016
:1028A00085EE92E00E943A0B8E2D0E94A90D682FB2
:1028B00085EE92E00E943A0B802F0E94A90D682FAE
:1028C00085EE92E00E943A0B8D2D0E94A90D682F93
:1028D00085EE92E00E943A0B61E085EE92E00E9464
:1028E0003A0B8F2D0E94A90D682F85EE92E00E9471
:1028F0003A0B812F0E94A90D682F85EE92E00E946D
:102900003A0BCE0164E670E00E943F170E94A90DC9
:10291000682F85EE92E00E943A0B85EE92E0DF91FF
:10292000CF911F910F91FF90EF90DF900C942D0CA1
:102930006F927F928F929F92AF92BF92CF92DF92CF
:10294000EF92FF920F931F93CF93DF9300D0CDB7F9
:10295000DEB7DC0101969A838983EC918FE98E0FB3
:102960008A31A8F411968C911197811110C0E93623
:1029700071F0EB363CF4E0568AE0E89FE02D11243C
:10298000E09388030E94940C0E94FD1276C180EDB2
:102990008E0F8A3048F411969C9191116EC18093EC
:1029A000860310928003EECFEB3261F411968C9186
:1029B000811163C180918703893020F78F5F8093F5
:1029C0008703E0CFED3251F411968C91811155C1FE
:1029D000809187038823B1F28150F1CFEF53EA3120
:1029E00008F04BC10E2E000CFF0BE750FB4E0C9471
:1029F0009417C4143D163D16311549153D169C1506
:102A00003D163D16BE1535163D163D16A715131578
:102A10006C153D1686153D162E162716FF153D160C
:102A20001C153D169115CE0101960E94790E8A3033
:102A3000910508F4B4CFA6CFCE0101960E94790E7D
:102A400097FD0BC0CE0101960E94790E0A973CF4C7
:102A5000CE0101960E94790EB2CF80E0B0CF89E01E
:102A6000AECFCE0101960E94790E97FD0EC0CE0129
:102A700001960E94790E853691054CF4CE0101969F
:102A80000E94790E809388037DCF80E0FBCF84E69F
:102A9000F9CF0EE813E082E9C82E83E0D82ECE01EC
:102AA00001960E94790E97FD13C0CE0101960E94F7
:102AB000790E8F3F910509F06CF4CE0101960E94CA
:102AC000790EF80181938F01CE16DF0641F75ACFB8
:102AD00080E0F7CF8FEFF5CFCE0101960E94790EFF
:102AE000181619067CF4CE0101960E94790E0597FE
:102AF0005CF4CE0101960E94790E809389030E94B6
:102B0000370D40CF81E0F9CF84E0F7CFCE010196B9
:102B10000E94790E21E0892B09F420E020938A039A
:102B200031CFCE0101960E94790E21E0892B09F464
:102B300020E020938B0326CFCE0101960E94790ED0
:102B400021E0892B09F420E020938C031BCFCE01D8
:102B500001960E94790E21E0892B09F420E0209350
:102B60008D03CE0101960E94790E181619060CF0FD
:102B700009CF909397038093960304CFE981FA815C
:102B80008081803221F43196FA83E983F7CF8D3248
:102B900059F48FEF9FEF9093950380939403909354
:102BA000930380939203EECECE0101960E94790E9C
:102BB0005C01CE0101960E94790E6C01CE01019656
:102BC0000E94790E8C01CE0101960E94790E4CE391
:102BD0004A9D90014B9D300D11242C0D3D1D3093CD
:102BE000930320939203409F9001419F300D112445
:102BF000820F931F9093950380939403C3CECE01CD
:102C000001960E94790E6C01CE0101960E94790E08
:102C10003C01CE0101960E94790E5C01CE01019625
:102C20000E94790E4C01CE0101960E94790E8C0112
:102C3000CE0101960E94790E7C019401A501B30199
:102C4000C6010E943E1481E080937F039BCECE019B
:102C500001960E94790E0E94B00C94CECE0101968E
:102C60000E94790E0E94BB0C8DCE62EE70E08091C6
:102C70000C0190910D010E9414090F900F90DF91AB
:102C8000CF911F910F91FF90EF90DF90CF90BF9069
:102C9000AF909F908F907F906F900895CF93DF9328
:102CA000EC01E881F9810084F185E02DCE010995E0
:102CB000892B49F1E881F9810284F385E02DCE0169
:102CC0000995D0930D01C0930C01E09148038A301F
:102CD00011F08D3069F4EE2321F3F0E0E75BFC4F57
:102CE000108289E493E00E94981410924803D9CF8F
:102CF000E732B8F691E09E0F90934803F0E0E75B6F
:102D0000FC4F8083CECFDF91CF910895CF92DF9299
:102D1000EF92FF92CF930E948D016B017C0181E4C1
:102D200092E00E944E160E94BA0E80917103882391
:102D300061F01092710360917B0370917C0380912C
:102D40007D0390917E030E946A0F80913B039091D6
:102D50003C03A0913D03B0913E03A7019601281BBF
:102D6000390B4A0B5B0BDA01C901813D9740A10584
:102D7000B10510F1C0923B03D0923C03E0923D03B9
:102D8000F0923E030E94BC120E94391280930F0100
:102D900080918D03882369F08EE00E94F9012091D3
:102DA000960330919703A901485D5F4F4817590773
:102DB000BCF581E080930E0160918A03C0E0662338
:102DC00071F0C0910F01CC2349F0C0910E01CC23CA
:102DD00029F061E080918B03811101C060E08CE0FB
:102DE0000E94D6022AEF30E040E050E0CC2321F0F0
:102DF00028EE33E040E050E0C701B6010E945317CF
:102E0000622F617081E10E94D602CC2389F0C70154
:102E1000B601CF91FF90EF90DF90CF900C945B10B4
:102E200028523109821793073CF610920E01C4CF45
:102E3000CF91FF90EF90DF90CF900C94370D991BBE
:102E400079E004C0991F961708F0961B881F7A95A1
:102E5000C9F780950895AA1BBB1B51E107C0AA1FA3
:102E6000BB1FA617B70710F0A61BB70B881F991F2B
:102E70005A95A9F780959095BC01CD01089597FBCF
:102E8000072E16F4009407D077FD09D00E942B1767
:102E900007FC05D03EF4909581959F4F089570955D
:102EA00061957F4F0895A1E21A2EAA1BBB1BFD015D
:102EB0000DC0AA1FBB1FEE1FFF1FA217B307E40719
:102EC000F50720F0A21BB30BE40BF50B661F771F71
:102ED000881F991F1A9469F7609570958095909551
:102EE0009B01AC01BD01CF010895052E97FB1EF497
:102EF00000940E948C1757FD07D00E94531707FCBF
:102F000003D04EF40C948C17509540953095219534
:102F10003F4F4F4F5F4F0895909580957095619505
:102F20007F4F8F4F9F4F0895EE0FFF1F0590F49135
:102F3000E02D0994A29FB001B39FC001A39F700D23
:102F4000811D1124911DB29F700D811D1124911DB1
:102F500008950E949A17A59F900DB49F900DA49F6D
:102F6000800D911D112408958F929F92AF92BF9270
:102F7000CF92DF92EF92FF92CF93DF93EC016881C3
:102F800079818A819B81611571058105910521F403
:102F900064E279ED8BE597E02DE133EF41E050E01D
:102FA0000E94751749015A019B01AC01A7EAB1E4DF
:102FB0000E94A9176B017C01ACEEB4EFA50194014E
:102FC0000E947118C60ED71EE81EF91EF7FE06C035
:102FD00081E0C81AD108E10880E8F80AC882D982DD
:102FE000EA82FB82C701B6019F77DF91CF91FF9004
:102FF000EF90DF90CF90BF90AF909F908F9008950B
:103000008F929F92AF92BF92CF92DF92EF92FF92F8
:103010006091000170910101809102019091030182
:10302000611571058105910521F464E279ED8BE567
:1030300097E02DE133EF41E050E00E947517490120
:103040005A019B01AC01A7EAB1E40E94A9176B01E8
:103050007C01ACEEB4EFA50194010E947118C60E7C
:10306000D71EE81EF91EF7FE06C081E0C81AD10877
:10307000E10880E8F80AC0920001D0920101E092D4
:103080000201F0920301C701B6019F77FF90EF9014
:10309000DF90CF90BF90AF909F908F9008956093F6
:1030A0000001709301018093020190930301089540
:1030B000F999FECF92BD81BDF89A992780B5089500
:1030C000262FF999FECF1FBA92BD81BD20BD0FB644
:1030D000F894FA9AF99A0FBE01960895B7FF0C94E6
:1030E000A9170E94A917821B930B0895F894FFCF8C
:1030F00001000000F400F40001FFC80141020101D9
:10310000000000006007A10801074007D306ED0694
:10311000DF060D0A00000000003A0B690B9E080351
:103120000BDA0AE10AF40A00010204070B11192361
:103130002F3E50657E9BBBFFA70104640301000086
:1031400000FF780000FFFFFFFF580246494A4F008A
:1031500053454355454E4349410050415250414427
:10316000454F005245535049524152005345432E5A
:1031700020535541564500414C5445524E41444F11
:1031800000434F4C4F52004152434F495249530064
:10319000464C4153480056454C41005B0160016A72
:1031A0000173017C01870191019701A001A6010B28
:0431B0000A09060002
:00000001FF
